{
  "address": "0xfca57EE8B62d8e4b9792bd68095c2520723c306d",
  "abi": [
    {
      "inputs": [
        {
          "internalType": "address[][]",
          "name": "_paths",
          "type": "address[][]"
        },
        {
          "internalType": "address",
          "name": "_swapToken",
          "type": "address"
        },
        {
          "internalType": "address",
          "name": "_dexRouterAddress",
          "type": "address"
        }
      ],
      "stateMutability": "nonpayable",
      "type": "constructor"
    },
    {
      "stateMutability": "payable",
      "type": "fallback"
    },
    {
      "inputs": [
        {
          "internalType": "address",
          "name": "_toToken",
          "type": "address"
        },
        {
          "internalType": "uint256",
          "name": "_amount",
          "type": "uint256"
        }
      ],
      "name": "calculateNeededETHAmount",
      "outputs": [
        {
          "internalType": "uint256",
          "name": "",
          "type": "uint256"
        }
      ],
      "stateMutability": "view",
      "type": "function"
    },
    {
      "inputs": [],
      "name": "dexRouterAddress",
      "outputs": [
        {
          "internalType": "address",
          "name": "",
          "type": "address"
        }
      ],
      "stateMutability": "view",
      "type": "function"
    },
    {
      "inputs": [
        {
          "internalType": "address",
          "name": "",
          "type": "address"
        },
        {
          "internalType": "uint256",
          "name": "",
          "type": "uint256"
        }
      ],
      "name": "eligibleSwapPaths",
      "outputs": [
        {
          "internalType": "address",
          "name": "",
          "type": "address"
        }
      ],
      "stateMutability": "view",
      "type": "function"
    },
    {
      "inputs": [
        {
          "internalType": "address",
          "name": "_toToken",
          "type": "address"
        },
        {
          "internalType": "uint256",
          "name": "_amount",
          "type": "uint256"
        }
      ],
      "name": "swap",
      "outputs": [],
      "stateMutability": "payable",
      "type": "function"
    },
    {
      "inputs": [],
      "name": "swapToken",
      "outputs": [
        {
          "internalType": "address",
          "name": "",
          "type": "address"
        }
      ],
      "stateMutability": "view",
      "type": "function"
    },
    {
      "stateMutability": "payable",
      "type": "receive"
    }
  ],
  "transactionHash": "0x680cacf777c1fd70e2ccd98299de76304cac15833c23d1e80ce2a5bac7663040",
  "args": [
    [
      [
        "0x2791Bca1f2de4661ED88A30C99A7a9449Aa84174"
      ],
      [
        "0x7ceB23fD6bC0adD59E62ac25578270cFf1b9f619",
        "0x2791Bca1f2de4661ED88A30C99A7a9449Aa84174"
      ],
      [
        "0x0d500B1d8E8eF31E21C99d1Db9A6444d3ADf1270",
        "0x2791Bca1f2de4661ED88A30C99A7a9449Aa84174"
      ]
    ],
    "0x0d500B1d8E8eF31E21C99d1Db9A6444d3ADf1270",
    "0x1b02dA8Cb0d097eB8D57A175b88c7D8b47997506"
  ],
  "numDeployments": 1,
  "solcInputHash": "10fe5cc2e77ff4188aab80798438e159",
  "bytecode": "0x60806040523480156200001157600080fd5b5060405162001255380380620012558339810160408190526200003491620001e5565b600280546001600160a01b038084166001600160a01b031992831617909255600180549285169290911691909117905582516000905b808210156200013c578482815181106200009457634e487b7160e01b600052603260045260246000fd5b6020026020010151600080878581518110620000c057634e487b7160e01b600052603260045260246000fd5b6020026020010151600081518110620000e957634e487b7160e01b600052603260045260246000fd5b60200260200101516001600160a01b03166001600160a01b0316815260200190815260200160002090805190602001906200012692919062000147565b50620001346001836200039b565b91506200006a565b5050505050620003d6565b8280548282559060005260206000209081019282156200019f579160200282015b828111156200019f57825182546001600160a01b0319166001600160a01b0390911617825560209092019160019091019062000168565b50620001ad929150620001b1565b5090565b5b80821115620001ad5760008155600101620001b2565b80516001600160a01b0381168114620001e057600080fd5b919050565b600080600060608486031215620001fa578283fd5b83516001600160401b0381111562000210578384fd5b8401601f8101861362000221578384fd5b805162000238620002328262000375565b62000342565b80828252602082019150602084018960208560051b87010111156200025b578788fd5b875b84811015620003125781516001600160401b038111156200027c57898afd5b8b603f82890101126200028d57898afd5b60208188010151620002a3620002328262000375565b808282526020820191506040848b01018f60408560051b878e0101011115620002ca578d8efd5b8d94505b83851015620002f857620002e281620001c8565b83526001949094019360209283019201620002ce565b50875250506020948501949290920191506001016200025d565b5050809650505050506200032960208501620001c8565b91506200033960408501620001c8565b90509250925092565b604051601f8201601f191681016001600160401b03811182821017156200036d576200036d620003c0565b604052919050565b60006001600160401b03821115620003915762000391620003c0565b5060051b60200190565b60008219821115620003bb57634e487b7160e01b81526011600452602481fd5b500190565b634e487b7160e01b600052604160045260246000fd5b610e6f80620003e66000396000f3fe60806040526004361061004b5760003560e01c80631109ec99146100545780631357b11314610087578063d004f0f7146100bf578063dc73e49c146100d2578063e7f67fb1146100f257005b3661005257005b005b34801561006057600080fd5b5061007461006f366004610c11565b610112565b6040519081526020015b60405180910390f35b34801561009357600080fd5b506100a76100a2366004610c11565b6102b6565b6040516001600160a01b03909116815260200161007e565b6100526100cd366004610c11565b6102ee565b3480156100de57600080fd5b506001546100a7906001600160a01b031681565b3480156100fe57600080fd5b506002546100a7906001600160a01b031681565b6002546001546000916001600160a01b03908116918391610134911686610554565b80516040516307c0329d60e21b8152919250906000906001600160a01b03851690631f00ca749061016b9089908790600401610daa565b60006040518083038186803b15801561018357600080fd5b505afa158015610197573d6000803e3d6000fd5b505050506040513d6000823e601f3d908101601f191682016040526101bf9190810190610c47565b9050805182146102075760405162461bcd60e51b815260206004820152600e60248201526d105c9c985e5cc81d5b995c5d585b60921b60448201526064015b60405180910390fd5b80610213600184610e00565b8151811061023157634e487b7160e01b600052603260045260246000fd5b602002602001015186146102805760405162461bcd60e51b815260206004820152601660248201527509eeae8e0eae840c2dadeeadce840dad2e6dac2e8c6d60531b60448201526064016101fe565b806000815181106102a157634e487b7160e01b600052603260045260246000fd5b60200260200101519450505050505b92915050565b600060205281600052604060002081815481106102d257600080fd5b6000918252602090912001546001600160a01b03169150829050565b6002546001546001600160a01b039182169160009161030e911685610554565b90506000826001600160a01b031663fb3bdb4134868530426040518663ffffffff1660e01b81526004016103459493929190610dcb565b6000604051808303818588803b15801561035e57600080fd5b505af1158015610372573d6000803e3d6000fd5b50505050506040513d6000823e601f3d908101601f1916820160405261039b9190810190610c47565b60405163a9059cbb60e01b8152336004820152602481018690529091506001600160a01b0386169063a9059cbb90604401602060405180830381600087803b1580156103e657600080fd5b505af11580156103fa573d6000803e3d6000fd5b505050506040513d601f19601f8201168201806040525081019061041e9190610d07565b508060008151811061044057634e487b7160e01b600052603260045260246000fd5b602002602001015134111561054d5760008160008151811061047257634e487b7160e01b600052603260045260246000fd5b6020026020010151346104859190610e00565b6040805160008082526020820192839052929350339184916104a691610d71565b60006040518083038185875af1925050503d80600081146104e3576040519150601f19603f3d011682016040523d82523d6000602084013e6104e8565b606091505b505090508061054a5760405162461bcd60e51b815260206004820152602860248201527f4661696c656420746f2073656e6420737572706c757320455448206261636b206044820152673a37903ab9b2b91760c11b60648201526084016101fe565b50505b5050505050565b6001600160a01b03821660009081526020819052604090205460609060018114806105cf57506001600160a01b03848116600090815260208190526040902080549185169160019081106105b857634e487b7160e01b600052603260045260246000fd5b6000918252602090912001546001600160a01b0316145b1561067e576040805160028082526060820183529091602083019080368337019050509150838260008151811061061657634e487b7160e01b600052603260045260246000fd5b60200260200101906001600160a01b031690816001600160a01b031681525050828260018151811061065857634e487b7160e01b600052603260045260246000fd5b60200260200101906001600160a01b031690816001600160a01b031681525050506102b0565b80600214806106dd57506001600160a01b03848116600090815260208190526040902080549185169160029081106106c657634e487b7160e01b600052603260045260246000fd5b6000918252602090912001546001600160a01b0316145b156107f157604080516003808252608082019092529060208201606080368337019050509150838260008151811061072557634e487b7160e01b600052603260045260246000fd5b6001600160a01b03928316602091820292909201810191909152908516600090815290819052604090208054600190811061077057634e487b7160e01b600052603260045260246000fd5b9060005260206000200160009054906101000a90046001600160a01b0316826001815181106107af57634e487b7160e01b600052603260045260246000fd5b60200260200101906001600160a01b031690816001600160a01b031681525050828260028151811061065857634e487b7160e01b600052603260045260246000fd5b806003148061085057506001600160a01b038481166000908152602081905260409020805491851691600390811061083957634e487b7160e01b600052603260045260246000fd5b6000918252602090912001546001600160a01b0316145b156109ee57604080516003808252608082019092529060208201606080368337019050509150838260008151811061089857634e487b7160e01b600052603260045260246000fd5b6001600160a01b0392831660209182029290920181019190915290851660009081529081905260409020805460019081106108e357634e487b7160e01b600052603260045260246000fd5b9060005260206000200160009054906101000a90046001600160a01b03168260018151811061092257634e487b7160e01b600052603260045260246000fd5b6001600160a01b03928316602091820292909201810191909152908516600090815290819052604090208054600290811061096d57634e487b7160e01b600052603260045260246000fd5b9060005260206000200160009054906101000a90046001600160a01b0316826002815181106109ac57634e487b7160e01b600052603260045260246000fd5b60200260200101906001600160a01b031690816001600160a01b031681525050828260038151811061065857634e487b7160e01b600052603260045260246000fd5b60408051600480825260a0820190925290602082016080803683370190505091508382600081518110610a3157634e487b7160e01b600052603260045260246000fd5b6001600160a01b039283166020918202929092018101919091529085166000908152908190526040902080546001908110610a7c57634e487b7160e01b600052603260045260246000fd5b9060005260206000200160009054906101000a90046001600160a01b031682600181518110610abb57634e487b7160e01b600052603260045260246000fd5b6001600160a01b039283166020918202929092018101919091529085166000908152908190526040902080546002908110610b0657634e487b7160e01b600052603260045260246000fd5b9060005260206000200160009054906101000a90046001600160a01b031682600281518110610b4557634e487b7160e01b600052603260045260246000fd5b6001600160a01b039283166020918202929092018101919091529085166000908152908190526040902080546003908110610b9057634e487b7160e01b600052603260045260246000fd5b9060005260206000200160009054906101000a90046001600160a01b031682600381518110610bcf57634e487b7160e01b600052603260045260246000fd5b60200260200101906001600160a01b031690816001600160a01b031681525050828260048151811061065857634e487b7160e01b600052603260045260246000fd5b60008060408385031215610c23578182fd5b82356001600160a01b0381168114610c39578283fd5b946020939093013593505050565b60006020808385031215610c59578182fd5b825167ffffffffffffffff80821115610c70578384fd5b818501915085601f830112610c83578384fd5b815181811115610c9557610c95610e23565b8060051b604051601f19603f83011681018181108582111715610cba57610cba610e23565b604052828152858101935084860182860187018a1015610cd8578788fd5b8795505b83861015610cfa578051855260019590950194938601938601610cdc565b5098975050505050505050565b600060208284031215610d18578081fd5b81518015158114610d27578182fd5b9392505050565b6000815180845260208085019450808401835b83811015610d665781516001600160a01b031687529582019590820190600101610d41565b509495945050505050565b60008251815b81811015610d915760208186018101518583015201610d77565b81811115610d9f5782828501525b509190910192915050565b828152604060208201526000610dc36040830184610d2e565b949350505050565b848152608060208201526000610de46080830186610d2e565b6001600160a01b03949094166040830152506060015292915050565b600082821015610e1e57634e487b7160e01b81526011600452602481fd5b500390565b634e487b7160e01b600052604160045260246000fdfea2646970667358221220fc2f138f7a83ba4ce4fd2105384e2316195b1f1ac4e2d922f02f23d19970aa9c64736f6c63430008040033",
  "devdoc": {
    "kind": "dev",
    "methods": {},
    "version": 1
  },
  "userdoc": {
    "kind": "user",
    "methods": {},
    "version": 1
  },
  "storageLayout": {
    "storage": [
      {
        "astId": 1133,
        "contract": "contracts/test/Swapper.sol:Swapper",
        "label": "eligibleSwapPaths",
        "offset": 0,
        "slot": "0",
        "type": "t_mapping(t_address,t_array(t_address)dyn_storage)"
      },
      {
        "astId": 1135,
        "contract": "contracts/test/Swapper.sol:Swapper",
        "label": "swapToken",
        "offset": 0,
        "slot": "1",
        "type": "t_address"
      },
      {
        "astId": 1137,
        "contract": "contracts/test/Swapper.sol:Swapper",
        "label": "dexRouterAddress",
        "offset": 0,
        "slot": "2",
        "type": "t_address"
      }
    ],
    "types": {
      "t_address": {
        "encoding": "inplace",
        "label": "address",
        "numberOfBytes": "20"
      },
      "t_array(t_address)dyn_storage": {
        "base": "t_address",
        "encoding": "dynamic_array",
        "label": "address[]",
        "numberOfBytes": "32"
      },
      "t_mapping(t_address,t_array(t_address)dyn_storage)": {
        "encoding": "mapping",
        "key": "t_address",
        "label": "mapping(address => address[])",
        "numberOfBytes": "32",
        "value": "t_array(t_address)dyn_storage"
      }
    }
  }
}